{
  "contractName": "etherProfile",
  "abi": [
    {
      "inputs": [],
      "stateMutability": "nonpayable",
      "type": "constructor"
    },
    {
      "inputs": [
        {
          "internalType": "uint256",
          "name": "",
          "type": "uint256"
        }
      ],
      "name": "profiles",
      "outputs": [
        {
          "internalType": "uint256",
          "name": "id",
          "type": "uint256"
        },
        {
          "internalType": "address payable",
          "name": "profileOwner",
          "type": "address"
        },
        {
          "internalType": "string",
          "name": "emailAdress",
          "type": "string"
        },
        {
          "internalType": "string",
          "name": "profilePhotoUrl",
          "type": "string"
        }
      ],
      "stateMutability": "view",
      "type": "function",
      "constant": true
    },
    {
      "inputs": [],
      "name": "kill",
      "outputs": [],
      "stateMutability": "nonpayable",
      "type": "function"
    },
    {
      "inputs": [
        {
          "internalType": "string",
          "name": "_emailAdress",
          "type": "string"
        },
        {
          "internalType": "string",
          "name": "_profilePhotoUrl",
          "type": "string"
        }
      ],
      "name": "addProfile",
      "outputs": [],
      "stateMutability": "nonpayable",
      "type": "function"
    },
    {
      "inputs": [
        {
          "internalType": "string",
          "name": "_message",
          "type": "string"
        }
      ],
      "name": "setMessage",
      "outputs": [],
      "stateMutability": "nonpayable",
      "type": "function"
    },
    {
      "inputs": [],
      "name": "getMessage",
      "outputs": [
        {
          "internalType": "string",
          "name": "",
          "type": "string"
        }
      ],
      "stateMutability": "view",
      "type": "function",
      "constant": true
    }
  ],
  "bytecode": "0x608060405234801561001057600080fd5b50336000806101000a81548173ffffffffffffffffffffffffffffffffffffffff021916908373ffffffffffffffffffffffffffffffffffffffff1602179055506040518060400160405280600581526020017f68656c6c6f0000000000000000000000000000000000000000000000000000008152506001908051906020019061009c9291906100a2565b506101a5565b8280546100ae90610174565b90600052602060002090601f0160209004810192826100d05760008555610117565b82601f106100e957805160ff1916838001178555610117565b82800160010185558215610117579182015b828111156101165782518255916020019190600101906100fb565b5b5090506101249190610128565b5090565b5b80821115610141576000816000905550600101610129565b5090565b7f4e487b7100000000000000000000000000000000000000000000000000000000600052602260045260246000fd5b6000600282049050600182168061018c57607f821691505b60208210810361019f5761019e610145565b5b50919050565b610ade806101b46000396000f3fe608060405234801561001057600080fd5b50600436106100575760003560e01c8063368b87721461005c57806341c0e1b514610078578063c36fe3d614610082578063c942bdee146100b5578063ce6d41de146100d1575b600080fd5b610076600480360381019061007191906106ce565b6100ef565b005b610080610109565b005b61009c6004803603810190610097919061074d565b6101d0565b6040516100ac9493929190610852565b60405180910390f35b6100cf60048036038101906100ca91906108a5565b610330565b005b6100d961043f565b6040516100e6919061091d565b60405180910390f35b80600190805190602001906101059291906104d1565b5050565b60008054906101000a900473ffffffffffffffffffffffffffffffffffffffff1673ffffffffffffffffffffffffffffffffffffffff163373ffffffffffffffffffffffffffffffffffffffff1614610197576040517f08c379a000000000000000000000000000000000000000000000000000000000815260040161018e906109b1565b60405180910390fd5b60008054906101000a900473ffffffffffffffffffffffffffffffffffffffff1673ffffffffffffffffffffffffffffffffffffffff16ff5b60026020528060005260406000206000915090508060000154908060010160009054906101000a900473ffffffffffffffffffffffffffffffffffffffff169080600201805461021f90610a00565b80601f016020809104026020016040519081016040528092919081815260200182805461024b90610a00565b80156102985780601f1061026d57610100808354040283529160200191610298565b820191906000526020600020905b81548152906001019060200180831161027b57829003601f168201915b5050505050908060030180546102ad90610a00565b80601f01602080910402602001604051908101604052809291908181526020018280546102d990610a00565b80156103265780601f106102fb57610100808354040283529160200191610326565b820191906000526020600020905b81548152906001019060200180831161030957829003601f168201915b5050505050905084565b6003600081548092919061034390610a60565b9190505550604051806080016040528060035481526020013373ffffffffffffffffffffffffffffffffffffffff168152602001838152602001828152506002600060035481526020019081526020016000206000820151816000015560208201518160010160006101000a81548173ffffffffffffffffffffffffffffffffffffffff021916908373ffffffffffffffffffffffffffffffffffffffff16021790555060408201518160020190805190602001906104039291906104d1565b5060608201518160030190805190602001906104209291906104d1565b50905050806001908051906020019061043a9291906104d1565b505050565b60606001805461044e90610a00565b80601f016020809104026020016040519081016040528092919081815260200182805461047a90610a00565b80156104c75780601f1061049c576101008083540402835291602001916104c7565b820191906000526020600020905b8154815290600101906020018083116104aa57829003601f168201915b5050505050905090565b8280546104dd90610a00565b90600052602060002090601f0160209004810192826104ff5760008555610546565b82601f1061051857805160ff1916838001178555610546565b82800160010185558215610546579182015b8281111561054557825182559160200191906001019061052a565b5b5090506105539190610557565b5090565b5b80821115610570576000816000905550600101610558565b5090565b6000604051905090565b600080fd5b600080fd5b600080fd5b600080fd5b6000601f19601f8301169050919050565b7f4e487b7100000000000000000000000000000000000000000000000000000000600052604160045260246000fd5b6105db82610592565b810181811067ffffffffffffffff821117156105fa576105f96105a3565b5b80604052505050565b600061060d610574565b905061061982826105d2565b919050565b600067ffffffffffffffff821115610639576106386105a3565b5b61064282610592565b9050602081019050919050565b82818337600083830152505050565b600061067161066c8461061e565b610603565b90508281526020810184848401111561068d5761068c61058d565b5b61069884828561064f565b509392505050565b600082601f8301126106b5576106b4610588565b5b81356106c584826020860161065e565b91505092915050565b6000602082840312156106e4576106e361057e565b5b600082013567ffffffffffffffff81111561070257610701610583565b5b61070e848285016106a0565b91505092915050565b6000819050919050565b61072a81610717565b811461073557600080fd5b50565b60008135905061074781610721565b92915050565b6000602082840312156107635761076261057e565b5b600061077184828501610738565b91505092915050565b61078381610717565b82525050565b600073ffffffffffffffffffffffffffffffffffffffff82169050919050565b60006107b482610789565b9050919050565b6107c4816107a9565b82525050565b600081519050919050565b600082825260208201905092915050565b60005b838110156108045780820151818401526020810190506107e9565b83811115610813576000848401525b50505050565b6000610824826107ca565b61082e81856107d5565b935061083e8185602086016107e6565b61084781610592565b840191505092915050565b6000608082019050610867600083018761077a565b61087460208301866107bb565b81810360408301526108868185610819565b9050818103606083015261089a8184610819565b905095945050505050565b600080604083850312156108bc576108bb61057e565b5b600083013567ffffffffffffffff8111156108da576108d9610583565b5b6108e6858286016106a0565b925050602083013567ffffffffffffffff81111561090757610906610583565b5b610913858286016106a0565b9150509250929050565b600060208201905081810360008301526109378184610819565b905092915050565b7f546869732066756e6374696f6e2063616e206f6e6c792062652063616c6c656460008201527f2062792074686520636f6e7472616374206f776e657200000000000000000000602082015250565b600061099b6036836107d5565b91506109a68261093f565b604082019050919050565b600060208201905081810360008301526109ca8161098e565b9050919050565b7f4e487b7100000000000000000000000000000000000000000000000000000000600052602260045260246000fd5b60006002820490506001821680610a1857607f821691505b602082108103610a2b57610a2a6109d1565b5b50919050565b7f4e487b7100000000000000000000000000000000000000000000000000000000600052601160045260246000fd5b6000610a6b82610717565b91507fffffffffffffffffffffffffffffffffffffffffffffffffffffffffffffffff8203610a9d57610a9c610a31565b5b60018201905091905056fea26469706673582212201ed6ba4cb128f482470e7791231de0f6546ef42dbc076d33b8db0baaf48d809764736f6c634300080d0033",
  "immutableReferences": {},
  "source": "pragma solidity >=0.4.22 <0.9.0;\r\n\r\nimport \"./Ownable.sol\";\r\n\r\ncontract etherProfile is Ownable {\r\n    string message; //this is for testing\r\n\r\n    // Custom Types\r\n    struct Profile {\r\n        uint id;\r\n        address payable profileOwner;\r\n        string emailAdress;\r\n        string profilePhotoUrl;\r\n    }\r\n\r\n    // State variables\r\n    mapping(uint => Profile) public profiles;\r\n    uint profileCounter;\r\n    address payable profileOwner;\r\n    string emailAdress;\r\n    string profilePhotoUrl;\r\n\r\n    function kill() public onlyOwner {\r\n        selfdestruct(owner);\r\n    }\r\n\r\n    function addProfile(string memory _emailAdress, string memory _profilePhotoUrl) public {\r\n        profileCounter++;\r\n        profiles[profileCounter] = Profile(\r\n            profileCounter,\r\n            payable(msg.sender),\r\n            _emailAdress,\r\n            _profilePhotoUrl\r\n        );\r\n        message = _profilePhotoUrl;\r\n\r\n    }\r\n\r\n    // for testing initially\r\n\r\n    constructor() {\r\n        message = \"hello\";\r\n    }\r\n\r\n    function setMessage(string memory _message) public {\r\n        message = _message;\r\n    }\r\n\r\n    function getMessage() public view returns (string memory) {\r\n        return message;\r\n    }\r\n    \r\n\r\n}",
  "sourcePath": "D:\\Kevin\\Developing\\Phase2\\etherProfile\\contracts\\etherProfile.sol",
  "compiler": {
    "name": "solc",
    "version": "0.8.13+commit.abaa5c0e.Emscripten.clang"
  },
  "schemaVersion": "3.4.7",
  "updatedAt": "2022-05-21T16:56:00.353Z",
  "networkType": "ethereum",
  "devdoc": {
    "kind": "dev",
    "methods": {},
    "version": 1
  },
  "userdoc": {
    "kind": "user",
    "methods": {},
    "version": 1
  }
}